{
  "contractName": "Bridge",
  "abi": [
    {
      "inputs": [
        {
          "internalType": "contract IERC20",
          "name": "_token",
          "type": "address"
        },
        {
          "internalType": "contract IAuthorizers",
          "name": "_authorizers",
          "type": "address"
        }
      ],
      "stateMutability": "nonpayable",
      "type": "constructor"
    },
    {
      "anonymous": false,
      "inputs": [
        {
          "indexed": true,
          "internalType": "address",
          "name": "previousAuthorizers",
          "type": "address"
        },
        {
          "indexed": true,
          "internalType": "address",
          "name": "newAuthorizers",
          "type": "address"
        }
      ],
      "name": "AuthorizersTransferred",
      "type": "event"
    },
    {
      "anonymous": false,
      "inputs": [
        {
          "indexed": true,
          "internalType": "address",
          "name": "from",
          "type": "address"
        },
        {
          "indexed": false,
          "internalType": "uint256",
          "name": "amount",
          "type": "uint256"
        },
        {
          "indexed": false,
          "internalType": "bytes",
          "name": "clientId",
          "type": "bytes"
        },
        {
          "indexed": true,
          "internalType": "uint256",
          "name": "nonce",
          "type": "uint256"
        }
      ],
      "name": "Burned",
      "type": "event"
    },
    {
      "anonymous": false,
      "inputs": [
        {
          "indexed": true,
          "internalType": "address",
          "name": "to",
          "type": "address"
        },
        {
          "indexed": false,
          "internalType": "uint256",
          "name": "amount",
          "type": "uint256"
        },
        {
          "indexed": false,
          "internalType": "bytes",
          "name": "txid",
          "type": "bytes"
        },
        {
          "indexed": true,
          "internalType": "uint256",
          "name": "nonce",
          "type": "uint256"
        }
      ],
      "name": "Minted",
      "type": "event"
    },
    {
      "anonymous": false,
      "inputs": [
        {
          "indexed": true,
          "internalType": "address",
          "name": "previousOwner",
          "type": "address"
        },
        {
          "indexed": true,
          "internalType": "address",
          "name": "newOwner",
          "type": "address"
        }
      ],
      "name": "OwnershipTransferred",
      "type": "event"
    },
    {
      "inputs": [],
      "name": "authorizers",
      "outputs": [
        {
          "internalType": "contract IAuthorizers",
          "name": "",
          "type": "address"
        }
      ],
      "stateMutability": "view",
      "type": "function",
      "constant": true
    },
    {
      "inputs": [],
      "name": "balance",
      "outputs": [
        {
          "internalType": "uint256",
          "name": "",
          "type": "uint256"
        }
      ],
      "stateMutability": "view",
      "type": "function",
      "constant": true
    },
    {
      "inputs": [],
      "name": "owner",
      "outputs": [
        {
          "internalType": "address",
          "name": "",
          "type": "address"
        }
      ],
      "stateMutability": "view",
      "type": "function",
      "constant": true
    },
    {
      "inputs": [],
      "name": "renounceOwnership",
      "outputs": [],
      "stateMutability": "nonpayable",
      "type": "function"
    },
    {
      "inputs": [
        {
          "internalType": "address",
          "name": "tokenToRescue",
          "type": "address"
        },
        {
          "internalType": "address",
          "name": "to",
          "type": "address"
        },
        {
          "internalType": "uint256",
          "name": "amount",
          "type": "uint256"
        }
      ],
      "name": "rescueFunds",
      "outputs": [
        {
          "internalType": "bool",
          "name": "",
          "type": "bool"
        }
      ],
      "stateMutability": "nonpayable",
      "type": "function"
    },
    {
      "inputs": [],
      "name": "token",
      "outputs": [
        {
          "internalType": "contract IERC20",
          "name": "",
          "type": "address"
        }
      ],
      "stateMutability": "view",
      "type": "function",
      "constant": true
    },
    {
      "inputs": [
        {
          "internalType": "address",
          "name": "newOwner",
          "type": "address"
        }
      ],
      "name": "transferOwnership",
      "outputs": [],
      "stateMutability": "nonpayable",
      "type": "function"
    },
    {
      "inputs": [
        {
          "internalType": "address",
          "name": "",
          "type": "address"
        }
      ],
      "name": "userNonceMinted",
      "outputs": [
        {
          "internalType": "uint256",
          "name": "",
          "type": "uint256"
        }
      ],
      "stateMutability": "view",
      "type": "function",
      "constant": true
    },
    {
      "inputs": [
        {
          "internalType": "address",
          "name": "to",
          "type": "address"
        }
      ],
      "name": "getUserNonceMinted",
      "outputs": [
        {
          "internalType": "uint256",
          "name": "",
          "type": "uint256"
        }
      ],
      "stateMutability": "view",
      "type": "function",
      "constant": true
    },
    {
      "inputs": [
        {
          "internalType": "uint256",
          "name": "_amount",
          "type": "uint256"
        },
        {
          "internalType": "bytes",
          "name": "_clientId",
          "type": "bytes"
        }
      ],
      "name": "burn",
      "outputs": [],
      "stateMutability": "nonpayable",
      "type": "function"
    },
    {
      "inputs": [
        {
          "internalType": "address",
          "name": "_to",
          "type": "address"
        },
        {
          "internalType": "uint256",
          "name": "_amount",
          "type": "uint256"
        },
        {
          "internalType": "bytes",
          "name": "_txid",
          "type": "bytes"
        },
        {
          "internalType": "uint256",
          "name": "_nonce",
          "type": "uint256"
        },
        {
          "internalType": "bytes[]",
          "name": "_signatures",
          "type": "bytes[]"
        }
      ],
      "name": "mint",
      "outputs": [],
      "stateMutability": "nonpayable",
      "type": "function"
    },
    {
      "inputs": [
        {
          "internalType": "address",
          "name": "_for",
          "type": "address"
        },
        {
          "internalType": "uint256",
          "name": "_amount",
          "type": "uint256"
        },
        {
          "internalType": "bytes",
          "name": "_txid",
          "type": "bytes"
        },
        {
          "internalType": "uint256",
          "name": "_nonce",
          "type": "uint256"
        },
        {
          "internalType": "bytes[]",
          "name": "_signatures",
          "type": "bytes[]"
        }
      ],
      "name": "mintFor",
      "outputs": [],
      "stateMutability": "nonpayable",
      "type": "function"
    },
    {
      "inputs": [
        {
          "internalType": "uint256",
          "name": "_amount",
          "type": "uint256"
        },
        {
          "internalType": "bytes",
          "name": "_txid",
          "type": "bytes"
        },
        {
          "internalType": "uint256",
          "name": "_nonce",
          "type": "uint256"
        },
        {
          "internalType": "bytes[]",
          "name": "signatures",
          "type": "bytes[]"
        }
      ],
      "name": "isAuthorizationValid",
      "outputs": [
        {
          "internalType": "bool",
          "name": "",
          "type": "bool"
        }
      ],
      "stateMutability": "nonpayable",
      "type": "function"
    }
  ],
  "bytecode": "0x6080604052600060045534801561001557600080fd5b50604051620013e1380380620013e18339810160408190526100369161010f565b8082610041336100a7565b600180546001600160a01b039283166001600160a01b0319918216179091556002805492841692909116821790556040516000907fc44d874e85f1c5b65d10c0c33020d49211b91e9f2704457f2ef269e5fb7a6b5d908290a35050600160035550610149565b600080546001600160a01b038381166001600160a01b0319831681178455604051919092169283917f8be0079c531659141344cd1fd0a4f28419497f9722a3daafe3b4186f6b6457e09190a35050565b6001600160a01b038116811461010c57600080fd5b50565b6000806040838503121561012257600080fd5b825161012d816100f7565b602084015190925061013e816100f7565b809150509250929050565b61128880620001596000396000f3fe608060405234801561001057600080fd5b50600436106100cf5760003560e01c8063715018a61161008c578063e563e52611610066578063e563e526146101ab578063f2fde38b146101d4578063fc0c546a146101e7578063fe9d9303146101fa57600080fd5b8063715018a61461018a5780638da5cb5b14610192578063b69ef8a8146101a357600080fd5b8063062f950e146100d457806323b318801461010757806325250e0a1461011c57806356741b2c1461013f57806356f6dd62146101645780636ccae05414610177575b600080fd5b6100f46100e2366004610d60565b60056020526000908152604090205481565b6040519081526020015b60405180910390f35b61011a610115366004610e12565b61020d565b005b61012f61012a366004610ea8565b610377565b60405190151581526020016100fe565b6002546001600160a01b03165b6040516001600160a01b0390911681526020016100fe565b61011a610172366004610e12565b61041b565b61012f610185366004610f2b565b61056a565b61011a610667565b6000546001600160a01b031661014c565b6100f461067b565b6100f46101b9366004610d60565b6001600160a01b031660009081526005602052604090205490565b61011a6101e2366004610d60565b6106ed565b60015461014c906001600160a01b031681565b61011a610208366004610f6c565b610766565b6001600160a01b038716600090815260056020526040902054879084908190610237906001610fb8565b1461025d5760405162461bcd60e51b815260040161025490610fde565b60405180910390fd5b604080516080810182526001600160a01b038b16815260208082018b90528251601f8a0182900482028101820184528981528c938c938c938c938c938c938c936000939192830191908990899081908401838280828437600092018290525093855250505060209091018690529091506102df6002546001600160a01b031690565b6001600160a01b0316630b249ae48a8a8a8a8a6040518663ffffffff1660e01b8152600401610312959493929190611075565b6020604051808303816000875af1158015610331573d6000803e3d6000fd5b505050506040513d601f19601f8201168201806040525081019061035591906110af565b9050610363828286866107ac565b505050505050505050505050505050505050565b60008061038c6002546001600160a01b031690565b6001600160a01b0316630b249ae4338a8a8a8a6040518663ffffffff1660e01b81526004016103bf959493929190611075565b6020604051808303816000875af11580156103de573d6000803e3d6000fd5b505050506040513d601f19601f8201168201806040525081019061040291906110af565b905061040f818585610a63565b98975050505050505050565b6001600160a01b038716600090815260056020526040902054879084908190610445906001610fb8565b146104625760405162461bcd60e51b815260040161025490610fde565b600060405180608001604052808b6001600160a01b031681526020018a815260200189898080601f016020809104026020016040519081016040528093929190818152602001838380828437600092018290525093855250505060209091018890529091506104d96002546001600160a01b031690565b6001600160a01b0316630b249ae48c8c8c8c8c6040518663ffffffff1660e01b815260040161050c959493929190611075565b6020604051808303816000875af115801561052b573d6000803e3d6000fd5b505050506040513d601f19601f8201168201806040525081019061054f91906110af565b905061055d828288886107ac565b5050505050505050505050565b6000610574610b0c565b6001546001600160a01b038086169116036105ec5760405162461bcd60e51b815260206004820152603260248201527f546f6b656e506f6f6c3a2043616e6e6f7420636c61696d20746f6b656e2068656044820152711b1908189e481d1a194818dbdb9d1c9858dd60721b6064820152608401610254565b60405163a9059cbb60e01b81526001600160a01b0384811660048301526024820184905285169063a9059cbb906044016020604051808303816000875af115801561063b573d6000803e3d6000fd5b505050506040513d601f19601f8201168201806040525081019061065f91906110c8565b949350505050565b61066f610b0c565b6106796000610b66565b565b6001546040516370a0823160e01b81523060048201526000916001600160a01b0316906370a0823190602401602060405180830381865afa1580156106c4573d6000803e3d6000fd5b505050506040513d601f19601f820116820180604052508101906106e891906110af565b905090565b6106f5610b0c565b6001600160a01b03811661075a5760405162461bcd60e51b815260206004820152602660248201527f4f776e61626c653a206e6577206f776e657220697320746865207a65726f206160448201526564647265737360d01b6064820152608401610254565b61076381610b66565b50565b6107a7338484848080601f016020809104026020016040519081016040528093929190818152602001838380828437600092019190915250610bb692505050565b505050565b6002600354036107fe5760405162461bcd60e51b815260206004820152601f60248201527f5265656e7472616e637947756172643a207265656e7472616e742063616c6c006044820152606401610254565b600260038190555460405163e304688f60e01b81528491849184916001600160a01b03169063e304688f9061083b908690869086906004016110ea565b6020604051808303816000875af115801561085a573d6000803e3d6000fd5b505050506040513d601f19601f8201168201806040525081019061087e91906110c8565b61089a5760405162461bcd60e51b815260040161025490611192565b306001600160a01b031663fc0c546a6040518163ffffffff1660e01b8152600401602060405180830381865afa1580156108d8573d6000803e3d6000fd5b505050506040513d601f19601f820116820180604052508101906108fc91906111d8565b8751602089015160405163a9059cbb60e01b81526001600160a01b039283166004820152602481019190915291169063a9059cbb906044016020604051808303816000875af1158015610953573d6000803e3d6000fd5b505050506040513d601f19601f8201168201806040525081019061097791906110c8565b6109cf5760405162461bcd60e51b815260206004820152602360248201527f4272696467653a207472616e73666572206f7574206f6620706f6f6c206661696044820152621b195960ea1b6064820152608401610254565b86606001516005600089600001516001600160a01b03166001600160a01b0316815260200190815260200160002081905550866060015187600001516001600160a01b03167fe04478a4154dc31a079fa36b9ee1af057f492a47c1524ac67f2ea4c214c3de9289602001518a60400151604051610a4d9291906111f5565b60405180910390a3505060016003555050505050565b60025460405163e304688f60e01b81526000918591859185916001600160a01b039091169063e304688f90610aa0908690869086906004016110ea565b6020604051808303816000875af1158015610abf573d6000803e3d6000fd5b505050506040513d601f19601f82011682018060405250810190610ae391906110c8565b610aff5760405162461bcd60e51b815260040161025490611192565b5060019695505050505050565b6000546001600160a01b031633146106795760405162461bcd60e51b815260206004820181905260248201527f4f776e61626c653a2063616c6c6572206973206e6f7420746865206f776e65726044820152606401610254565b600080546001600160a01b038381166001600160a01b0319831681178455604051919092169283917f8be0079c531659141344cd1fd0a4f28419497f9722a3daafe3b4186f6b6457e09190a35050565b306001600160a01b031663fc0c546a6040518163ffffffff1660e01b8152600401602060405180830381865afa158015610bf4573d6000803e3d6000fd5b505050506040513d601f19601f82011682018060405250810190610c1891906111d8565b6040516323b872dd60e01b81526001600160a01b0385811660048301523060248301526044820185905291909116906323b872dd906064016020604051808303816000875af1158015610c6f573d6000803e3d6000fd5b505050506040513d601f19601f82011682018060405250810190610c9391906110c8565b610cee5760405162461bcd60e51b815260206004820152602660248201527f4272696467653a207472616e7366657220696e746f206275726e20706f6f6c2060448201526519985a5b195960d21b6064820152608401610254565b600454610cfc906001610fb8565b60048190556040516001600160a01b038516907f2b1155a5de2441854f3781130b980daa499b3412053ee40fcde076774bb12df290610d3e90869086906111f5565b60405180910390a3505050565b6001600160a01b038116811461076357600080fd5b600060208284031215610d7257600080fd5b8135610d7d81610d4b565b9392505050565b60008083601f840112610d9657600080fd5b50813567ffffffffffffffff811115610dae57600080fd5b602083019150836020828501011115610dc657600080fd5b9250929050565b60008083601f840112610ddf57600080fd5b50813567ffffffffffffffff811115610df757600080fd5b6020830191508360208260051b8501011115610dc657600080fd5b600080600080600080600060a0888a031215610e2d57600080fd5b8735610e3881610d4b565b965060208801359550604088013567ffffffffffffffff80821115610e5c57600080fd5b610e688b838c01610d84565b909750955060608a0135945060808a0135915080821115610e8857600080fd5b50610e958a828b01610dcd565b989b979a50959850939692959293505050565b60008060008060008060808789031215610ec157600080fd5b86359550602087013567ffffffffffffffff80821115610ee057600080fd5b610eec8a838b01610d84565b9097509550604089013594506060890135915080821115610f0c57600080fd5b50610f1989828a01610dcd565b979a9699509497509295939492505050565b600080600060608486031215610f4057600080fd5b8335610f4b81610d4b565b92506020840135610f5b81610d4b565b929592945050506040919091013590565b600080600060408486031215610f8157600080fd5b83359250602084013567ffffffffffffffff811115610f9f57600080fd5b610fab86828701610d84565b9497909650939450505050565b60008219821115610fd957634e487b7160e01b600052601160045260246000fd5b500190565b60208082526048908201527f69664e6f744d696e7465643a206e6f6e63652070726f7669646564206d75737460408201527f20312067726561746572207468616e207468652070726576696f75732062757260608201526737103737b731b29760c11b608082015260a00190565b81835281816020850137506000828201602090810191909152601f909101601f19169091010190565b60018060a01b038616815284602082015260806040820152600061109d60808301858761104c565b90508260608301529695505050505050565b6000602082840312156110c157600080fd5b5051919050565b6000602082840312156110da57600080fd5b81518015158114610d7d57600080fd5b60006040820185835260206040818501528185835260608501905060608660051b86010192508660005b8781101561118457868503605f190183528135368a9003601e1901811261113a57600080fd5b8901848101903567ffffffffffffffff81111561115657600080fd5b80360382131561116557600080fd5b61117087828461104c565b965050509183019190830190600101611114565b509298975050505050505050565b60208082526026908201527f417574686f72697a6572733a207369676e617475726573206e6f7420617574686040820152651bdc9a5e995960d21b606082015260800190565b6000602082840312156111ea57600080fd5b8151610d7d81610d4b565b82815260006020604081840152835180604085015260005b818110156112295785810183015185820160600152820161120d565b8181111561123b576000606083870101525b50601f01601f19169290920160600194935050505056fea26469706673582212207be4b51c1060a26bbac6205d563cfa92e32dae9884b5414f4ec29ed2f8076e3064736f6c634300080f0033",
  "immutableReferences": {},
  "source": "// SPDX-License-Identifier: MIT\npragma solidity 0.8.15.0;\n\nimport \"@openzeppelin/contracts/token/ERC20/IERC20.sol\";\nimport \"@openzeppelin/contracts/security/ReentrancyGuard.sol\";\nimport \"./IBridge.sol\";\nimport \"./TokenPool.sol\";\nimport \"./Authorizable.sol\";\nimport \"./Message.sol\";\n\n/**\n * @dev Change to external token pool if block gas limit becomes an issue\n * @dev Bridge implements IBridge interface to mint and burn transactions\n */\ncontract Bridge is IBridge, TokenPool, Authorizable, ReentrancyGuard {\n    // Burns global counter\n    uint256 private burnNonce = 0;\n    // Mapping to -> nonce when minted where the nonce is the burn nonce in ZCN\n    mapping(address => uint256) public userNonceMinted;\n\n    modifier notMinted(address to, uint256 nonce_) {\n        require(\n            userNonceMinted[to] + 1 == nonce_,\n            \"ifNotMinted: nonce provided must 1 greater than the previous burn nonce.\"\n        );\n        _;\n    }\n\n    /**\n     * @dev Initializes the contract, sets {token} {authorizers} and\n     * initializes authorizers and token pool.\n     */\n    constructor(IERC20 _token, IAuthorizers _authorizers)\n        TokenPool(_token)\n        Authorizable(_authorizers){}\n\n    /**\n     * @dev Returns nonce for a specified account\n     */\n    function getUserNonceMinted(address to) public view returns (uint256){\n        return userNonceMinted[to];\n    }\n\n    /**\n     * @dev see {IBridge-burn}\n     */\n    function burn(uint256 _amount, bytes calldata _clientId) external override {\n        _burn(msg.sender, _amount, _clientId);\n    }\n\n    /**\n     * @dev Implementation of the burn function\n     * @param _from - the address to burn tokens from\n     * @param _amount - The amount of tokens to burn\n     * @param _clientId - The 0chain client ID of the burner\n     */\n    function _burn(\n        address _from,\n        uint256 _amount,\n        bytes memory _clientId\n    ) private {\n        require(\n            this.token().transferFrom(_from, address(this), _amount),\n            \"Bridge: transfer into burn pool failed\"\n        );\n        // first nonce is 1 not 0\n        burnNonce = burnNonce + 1;\n        \n        emit Burned(_from, _amount, _clientId, burnNonce);\n    }\n\n    /**\n     * @dev see {Ibridge-mint}\n     */\n    function mint(\n        address _to,\n        uint256 _amount,\n        bytes calldata _txid,\n        uint256 _nonce,\n        bytes[] calldata _signatures\n    ) external override notMinted(_to, _nonce) {\n        Message.Args memory args = Message.Args(\n            _to,\n            _amount,\n            _txid,\n            _nonce\n        );\n\n        bytes32 message = authorizers().messageHash(\n            _to,\n            _amount,\n            _txid,\n            _nonce\n        );\n\n        _mint(args, message, _signatures);\n    }\n\n    /**\n     * @dev implements third party mint execution\n     */\n    function mintFor(\n        address _for,\n        uint256 _amount,\n        bytes calldata _txid,\n        uint256 _nonce,\n        bytes[] calldata _signatures\n    ) external notMinted(_for, _nonce) {\n        // CompileError: CompilerError: Stack too deep.\n        // Try compiling with `--via-ir` (cli) or the equivalent `viaIR: true` (standard JSON)\n        // while enabling the optimizer. Otherwise, try removing local variables.\n        address to = _for;\n        uint256 amount = _amount;\n        bytes calldata txid = _txid;\n        uint256 nonce = _nonce;\n        bytes[] calldata signatures = _signatures;\n        Message.Args memory args = Message.Args(\n            to,\n            amount,\n            txid,\n            nonce\n        );\n        bytes32 message = authorizers().messageHash(\n            to,\n            amount,\n            txid,\n            nonce\n        );\n        _mint(args, message, signatures);\n    }\n\n    /**\n     * @dev Implementation of the mint function\n     * @param _args    - Arguments for message\n     * @param _message - The message generated and signed by authorizers\n     * @param _signatures - The validated signatures concatenated\n     */\n    function _mint(\n        Message.Args memory _args,\n        bytes32 _message,\n        bytes[] calldata _signatures\n    ) private nonReentrant isAuthorized(_message, _signatures) {\n        //Authorizer logic\n\n        require(\n            this.token().transfer(_args.to, _args.amount),\n            \"Bridge: transfer out of pool failed\"\n        );\n\n        // solhint-disable-next-line\n        userNonceMinted[_args.to] = _args.nonce;\n\n        emit Minted(\n            _args.to,\n            _args.amount,\n            _args.txid,\n            _args.nonce\n        );\n    }\n\n    // TODO UPDATE THIS\n\n    function isAuthorizationValid(\n        uint256 _amount,\n        bytes calldata _txid,\n        uint256 _nonce,\n        bytes[] calldata signatures\n    ) external returns (bool) {\n        bytes32 message = authorizers().messageHash(\n            msg.sender,\n            _amount,\n            _txid,\n            _nonce\n        );\n        return validAuthorization(message, signatures);\n    }\n\n    function validAuthorization(bytes32 message, bytes[] calldata signatures)\n        internal\n        isAuthorized(message, signatures)\n        returns (bool)\n    {\n        return true;\n    }\n}",
  "sourcePath": "/Volumes/Files/web3/0chain.io/token_bridge_SC/contracts/Bridge.sol",
  "compiler": {
    "name": "solc",
    "version": "0.8.15+commit.e14f2714.Emscripten.clang"
  },
  "schemaVersion": "3.4.10",
  "updatedAt": "2023-02-22T19:26:40.103Z",
  "networkType": "ethereum",
  "devdoc": {
    "details": "Change to external token pool if block gas limit becomes an issueBridge implements IBridge interface to mint and burn transactions",
    "kind": "dev",
    "methods": {
      "authorizers()": {
        "details": "returns the Authorizers Interface instance"
      },
      "burn(uint256,bytes)": {
        "details": "see {IBridge-burn}"
      },
      "constructor": {
        "details": "Initializes the contract, sets {token} {authorizers} and initializes authorizers and token pool."
      },
      "getUserNonceMinted(address)": {
        "details": "Returns nonce for a specified account"
      },
      "mint(address,uint256,bytes,uint256,bytes[])": {
        "details": "see {Ibridge-mint}"
      },
      "mintFor(address,uint256,bytes,uint256,bytes[])": {
        "details": "implements third party mint execution"
      },
      "owner()": {
        "details": "Returns the address of the current owner."
      },
      "renounceOwnership()": {
        "details": "Leaves the contract without owner. It will not be possible to call `onlyOwner` functions anymore. Can only be called by the current owner. NOTE: Renouncing ownership will leave the contract without an owner, thereby removing any functionality that is only available to the owner."
      },
      "transferOwnership(address)": {
        "details": "Transfers ownership of the contract to a new account (`newOwner`). Can only be called by the current owner."
      }
    },
    "version": 1
  },
  "userdoc": {
    "kind": "user",
    "methods": {},
    "version": 1
  }
}