{
  "contractName": "Bridge",
  "abi": [
    {
      "inputs": [
        {
          "internalType": "contract IERC20",
          "name": "_token",
          "type": "address"
        },
        {
          "internalType": "contract IAuthorizers",
          "name": "_authorizers",
          "type": "address"
        }
      ],
      "stateMutability": "nonpayable",
      "type": "constructor"
    },
    {
      "anonymous": false,
      "inputs": [
        {
          "indexed": true,
          "internalType": "address",
          "name": "previousAuthorizers",
          "type": "address"
        },
        {
          "indexed": true,
          "internalType": "address",
          "name": "newAuthorizers",
          "type": "address"
        }
      ],
      "name": "AuthorizersTransferred",
      "type": "event"
    },
    {
      "anonymous": false,
      "inputs": [
        {
          "indexed": true,
          "internalType": "address",
          "name": "from",
          "type": "address"
        },
        {
          "indexed": false,
          "internalType": "uint256",
          "name": "amount",
          "type": "uint256"
        },
        {
          "indexed": false,
          "internalType": "bytes",
          "name": "clientId",
          "type": "bytes"
        },
        {
          "indexed": true,
          "internalType": "uint256",
          "name": "nonce",
          "type": "uint256"
        }
      ],
      "name": "Burned",
      "type": "event"
    },
    {
      "anonymous": false,
      "inputs": [
        {
          "indexed": true,
          "internalType": "address",
          "name": "to",
          "type": "address"
        },
        {
          "indexed": false,
          "internalType": "uint256",
          "name": "amount",
          "type": "uint256"
        },
        {
          "indexed": false,
          "internalType": "bytes",
          "name": "txid",
          "type": "bytes"
        },
        {
          "indexed": true,
          "internalType": "uint256",
          "name": "nonce",
          "type": "uint256"
        }
      ],
      "name": "Minted",
      "type": "event"
    },
    {
      "anonymous": false,
      "inputs": [
        {
          "indexed": true,
          "internalType": "address",
          "name": "previousOwner",
          "type": "address"
        },
        {
          "indexed": true,
          "internalType": "address",
          "name": "newOwner",
          "type": "address"
        }
      ],
      "name": "OwnershipTransferred",
      "type": "event"
    },
    {
      "inputs": [],
      "name": "authorizers",
      "outputs": [
        {
          "internalType": "contract IAuthorizers",
          "name": "",
          "type": "address"
        }
      ],
      "stateMutability": "view",
      "type": "function",
      "constant": true
    },
    {
      "inputs": [],
      "name": "balance",
      "outputs": [
        {
          "internalType": "uint256",
          "name": "",
          "type": "uint256"
        }
      ],
      "stateMutability": "view",
      "type": "function",
      "constant": true
    },
    {
      "inputs": [],
      "name": "owner",
      "outputs": [
        {
          "internalType": "address",
          "name": "",
          "type": "address"
        }
      ],
      "stateMutability": "view",
      "type": "function",
      "constant": true
    },
    {
      "inputs": [],
      "name": "renounceOwnership",
      "outputs": [],
      "stateMutability": "nonpayable",
      "type": "function"
    },
    {
      "inputs": [
        {
          "internalType": "address",
          "name": "tokenToRescue",
          "type": "address"
        },
        {
          "internalType": "address",
          "name": "to",
          "type": "address"
        },
        {
          "internalType": "uint256",
          "name": "amount",
          "type": "uint256"
        }
      ],
      "name": "rescueFunds",
      "outputs": [
        {
          "internalType": "bool",
          "name": "",
          "type": "bool"
        }
      ],
      "stateMutability": "nonpayable",
      "type": "function"
    },
    {
      "inputs": [],
      "name": "token",
      "outputs": [
        {
          "internalType": "contract IERC20",
          "name": "",
          "type": "address"
        }
      ],
      "stateMutability": "view",
      "type": "function",
      "constant": true
    },
    {
      "inputs": [
        {
          "internalType": "address",
          "name": "newOwner",
          "type": "address"
        }
      ],
      "name": "transferOwnership",
      "outputs": [],
      "stateMutability": "nonpayable",
      "type": "function"
    },
    {
      "inputs": [
        {
          "internalType": "address",
          "name": "",
          "type": "address"
        }
      ],
      "name": "userNonceMinted",
      "outputs": [
        {
          "internalType": "uint256",
          "name": "",
          "type": "uint256"
        }
      ],
      "stateMutability": "view",
      "type": "function",
      "constant": true
    },
    {
      "inputs": [
        {
          "internalType": "address",
          "name": "to",
          "type": "address"
        }
      ],
      "name": "getUserNonceMinted",
      "outputs": [
        {
          "internalType": "uint256",
          "name": "",
          "type": "uint256"
        }
      ],
      "stateMutability": "view",
      "type": "function",
      "constant": true
    },
    {
      "inputs": [],
      "name": "resetUserNonceMinted",
      "outputs": [],
      "stateMutability": "nonpayable",
      "type": "function"
    },
    {
      "inputs": [
        {
          "internalType": "uint256",
          "name": "_amount",
          "type": "uint256"
        },
        {
          "internalType": "bytes",
          "name": "_clientId",
          "type": "bytes"
        }
      ],
      "name": "burn",
      "outputs": [],
      "stateMutability": "nonpayable",
      "type": "function"
    },
    {
      "inputs": [
        {
          "internalType": "address",
          "name": "_to",
          "type": "address"
        },
        {
          "internalType": "uint256",
          "name": "_amount",
          "type": "uint256"
        },
        {
          "internalType": "bytes",
          "name": "_txid",
          "type": "bytes"
        },
        {
          "internalType": "uint256",
          "name": "_nonce",
          "type": "uint256"
        },
        {
          "internalType": "bytes[]",
          "name": "_signatures",
          "type": "bytes[]"
        }
      ],
      "name": "mint",
      "outputs": [],
      "stateMutability": "nonpayable",
      "type": "function"
    },
    {
      "inputs": [
        {
          "internalType": "address",
          "name": "_for",
          "type": "address"
        },
        {
          "internalType": "uint256",
          "name": "_amount",
          "type": "uint256"
        },
        {
          "internalType": "bytes",
          "name": "_txid",
          "type": "bytes"
        },
        {
          "internalType": "uint256",
          "name": "_nonce",
          "type": "uint256"
        },
        {
          "internalType": "bytes[]",
          "name": "_signatures",
          "type": "bytes[]"
        }
      ],
      "name": "mintFor",
      "outputs": [],
      "stateMutability": "nonpayable",
      "type": "function"
    },
    {
      "inputs": [
        {
          "internalType": "uint256",
          "name": "_amount",
          "type": "uint256"
        },
        {
          "internalType": "bytes",
          "name": "_txid",
          "type": "bytes"
        },
        {
          "internalType": "uint256",
          "name": "_nonce",
          "type": "uint256"
        },
        {
          "internalType": "bytes[]",
          "name": "signatures",
          "type": "bytes[]"
        }
      ],
      "name": "isAuthorizationValid",
      "outputs": [
        {
          "internalType": "bool",
          "name": "",
          "type": "bool"
        }
      ],
      "stateMutability": "nonpayable",
      "type": "function"
    }
  ],
  "bytecode": "0x60806040526000600455600060055534801561001a57600080fd5b50604051620014a3380380620014a383398101604081905261003b91610114565b8082610046336100ac565b600180546001600160a01b039283166001600160a01b0319918216179091556002805492841692909116821790556040516000907fc44d874e85f1c5b65d10c0c33020d49211b91e9f2704457f2ef269e5fb7a6b5d908290a3505060016003555061014e565b600080546001600160a01b038381166001600160a01b0319831681178455604051919092169283917f8be0079c531659141344cd1fd0a4f28419497f9722a3daafe3b4186f6b6457e09190a35050565b6001600160a01b038116811461011157600080fd5b50565b6000806040838503121561012757600080fd5b8251610132816100fc565b6020840151909250610143816100fc565b809150509250929050565b611345806200015e6000396000f3fe608060405234801561001057600080fd5b50600436106100ea5760003560e01c80638da5cb5b1161008c578063e563e52611610066578063e563e526146101ce578063f2fde38b146101f7578063fc0c546a1461020a578063fe9d93031461021d57600080fd5b80638da5cb5b146101ad5780639e2aa15c146101be578063b69ef8a8146101c657600080fd5b806356741b2c116100c857806356741b2c1461015a57806356f6dd621461017f5780636ccae05414610192578063715018a6146101a557600080fd5b8063062f950e146100ef57806323b318801461012257806325250e0a14610137575b600080fd5b61010f6100fd366004610dfc565b60076020526000908152604090205481565b6040519081526020015b60405180910390f35b610135610130366004610eae565b610230565b005b61014a610145366004610f44565b61039a565b6040519015158152602001610119565b6002546001600160a01b03165b6040516001600160a01b039091168152602001610119565b61013561018d366004610eae565b61043e565b61014a6101a0366004610fc7565b61058d565b61013561068a565b6000546001600160a01b0316610167565b61013561069e565b61010f6106ec565b61010f6101dc366004610dfc565b6001600160a01b031660009081526007602052604090205490565b610135610205366004610dfc565b61075e565b600154610167906001600160a01b031681565b61013561022b366004611008565b6107d4565b6001600160a01b03871660009081526007602052604090205487908490819061025a90600161106a565b146102805760405162461bcd60e51b815260040161027790611082565b60405180910390fd5b604080516080810182526001600160a01b038b16815260208082018b90528251601f8a0182900482028101820184528981528c938c938c938c938c938c938c936000939192830191908990899081908401838280828437600092018290525093855250505060209091018690529091506103026002546001600160a01b031690565b6001600160a01b0316630b249ae48a8a8a8a8a6040518663ffffffff1660e01b8152600401610335959493929190611119565b6020604051808303816000875af1158015610354573d6000803e3d6000fd5b505050506040513d601f19601f820116820180604052508101906103789190611153565b90506103868282868661081a565b505050505050505050505050505050505050565b6000806103af6002546001600160a01b031690565b6001600160a01b0316630b249ae4338a8a8a8a6040518663ffffffff1660e01b81526004016103e2959493929190611119565b6020604051808303816000875af1158015610401573d6000803e3d6000fd5b505050506040513d601f19601f820116820180604052508101906104259190611153565b9050610432818585610aff565b98975050505050505050565b6001600160a01b03871660009081526007602052604090205487908490819061046890600161106a565b146104855760405162461bcd60e51b815260040161027790611082565b600060405180608001604052808b6001600160a01b031681526020018a815260200189898080601f016020809104026020016040519081016040528093929190818152602001838380828437600092018290525093855250505060209091018890529091506104fc6002546001600160a01b031690565b6001600160a01b0316630b249ae48c8c8c8c8c6040518663ffffffff1660e01b815260040161052f959493929190611119565b6020604051808303816000875af115801561054e573d6000803e3d6000fd5b505050506040513d601f19601f820116820180604052508101906105729190611153565b90506105808282888861081a565b5050505050505050505050565b6000610597610ba8565b6001546001600160a01b0380861691160361060f5760405162461bcd60e51b815260206004820152603260248201527f546f6b656e506f6f6c3a2043616e6e6f7420636c61696d20746f6b656e2068656044820152711b1908189e481d1a194818dbdb9d1c9858dd60721b6064820152608401610277565b60405163a9059cbb60e01b81526001600160a01b0384811660048301526024820184905285169063a9059cbb906044016020604051808303816000875af115801561065e573d6000803e3d6000fd5b505050506040513d601f19601f82011682018060405250810190610682919061116c565b949350505050565b610692610ba8565b61069c6000610c02565b565b6106a6610ba8565b60005b60055481116106e9576000818152600660209081526040808320546001600160a01b031683526007909152812055806106e18161118e565b9150506106a9565b50565b6001546040516370a0823160e01b81523060048201526000916001600160a01b0316906370a0823190602401602060405180830381865afa158015610735573d6000803e3d6000fd5b505050506040513d601f19601f820116820180604052508101906107599190611153565b905090565b610766610ba8565b6001600160a01b0381166107cb5760405162461bcd60e51b815260206004820152602660248201527f4f776e61626c653a206e6577206f776e657220697320746865207a65726f206160448201526564647265737360d01b6064820152608401610277565b6106e981610c02565b610815338484848080601f016020809104026020016040519081016040528093929190818152602001838380828437600092019190915250610c5292505050565b505050565b60026003540361086c5760405162461bcd60e51b815260206004820152601f60248201527f5265656e7472616e637947756172643a207265656e7472616e742063616c6c006044820152606401610277565b600260038190555460405163e304688f60e01b81528491849184916001600160a01b03169063e304688f906108a9908690869086906004016111a7565b6020604051808303816000875af11580156108c8573d6000803e3d6000fd5b505050506040513d601f19601f820116820180604052508101906108ec919061116c565b6109085760405162461bcd60e51b81526004016102779061124f565b306001600160a01b031663fc0c546a6040518163ffffffff1660e01b8152600401602060405180830381865afa158015610946573d6000803e3d6000fd5b505050506040513d601f19601f8201168201806040525081019061096a9190611295565b8751602089015160405163a9059cbb60e01b81526001600160a01b039283166004820152602481019190915291169063a9059cbb906044016020604051808303816000875af11580156109c1573d6000803e3d6000fd5b505050506040513d601f19601f820116820180604052508101906109e5919061116c565b610a3d5760405162461bcd60e51b815260206004820152602360248201527f4272696467653a207472616e73666572206f7574206f6620706f6f6c206661696044820152621b195960ea1b6064820152608401610277565b606087015187516001600160a01b039081166000908152600760209081526040808320949094558a51600580548452600690925293822080546001600160a01b031916949093169390931790915581549190610a988361118e565b9190505550866060015187600001516001600160a01b03167fe04478a4154dc31a079fa36b9ee1af057f492a47c1524ac67f2ea4c214c3de9289602001518a60400151604051610ae99291906112b2565b60405180910390a3505060016003555050505050565b60025460405163e304688f60e01b81526000918591859185916001600160a01b039091169063e304688f90610b3c908690869086906004016111a7565b6020604051808303816000875af1158015610b5b573d6000803e3d6000fd5b505050506040513d601f19601f82011682018060405250810190610b7f919061116c565b610b9b5760405162461bcd60e51b81526004016102779061124f565b5060019695505050505050565b6000546001600160a01b0316331461069c5760405162461bcd60e51b815260206004820181905260248201527f4f776e61626c653a2063616c6c6572206973206e6f7420746865206f776e65726044820152606401610277565b600080546001600160a01b038381166001600160a01b0319831681178455604051919092169283917f8be0079c531659141344cd1fd0a4f28419497f9722a3daafe3b4186f6b6457e09190a35050565b306001600160a01b031663fc0c546a6040518163ffffffff1660e01b8152600401602060405180830381865afa158015610c90573d6000803e3d6000fd5b505050506040513d601f19601f82011682018060405250810190610cb49190611295565b6040516323b872dd60e01b81526001600160a01b0385811660048301523060248301526044820185905291909116906323b872dd906064016020604051808303816000875af1158015610d0b573d6000803e3d6000fd5b505050506040513d601f19601f82011682018060405250810190610d2f919061116c565b610d8a5760405162461bcd60e51b815260206004820152602660248201527f4272696467653a207472616e7366657220696e746f206275726e20706f6f6c2060448201526519985a5b195960d21b6064820152608401610277565b600454610d9890600161106a565b60048190556040516001600160a01b038516907f2b1155a5de2441854f3781130b980daa499b3412053ee40fcde076774bb12df290610dda90869086906112b2565b60405180910390a3505050565b6001600160a01b03811681146106e957600080fd5b600060208284031215610e0e57600080fd5b8135610e1981610de7565b9392505050565b60008083601f840112610e3257600080fd5b50813567ffffffffffffffff811115610e4a57600080fd5b602083019150836020828501011115610e6257600080fd5b9250929050565b60008083601f840112610e7b57600080fd5b50813567ffffffffffffffff811115610e9357600080fd5b6020830191508360208260051b8501011115610e6257600080fd5b600080600080600080600060a0888a031215610ec957600080fd5b8735610ed481610de7565b965060208801359550604088013567ffffffffffffffff80821115610ef857600080fd5b610f048b838c01610e20565b909750955060608a0135945060808a0135915080821115610f2457600080fd5b50610f318a828b01610e69565b989b979a50959850939692959293505050565b60008060008060008060808789031215610f5d57600080fd5b86359550602087013567ffffffffffffffff80821115610f7c57600080fd5b610f888a838b01610e20565b9097509550604089013594506060890135915080821115610fa857600080fd5b50610fb589828a01610e69565b979a9699509497509295939492505050565b600080600060608486031215610fdc57600080fd5b8335610fe781610de7565b92506020840135610ff781610de7565b929592945050506040919091013590565b60008060006040848603121561101d57600080fd5b83359250602084013567ffffffffffffffff81111561103b57600080fd5b61104786828701610e20565b9497909650939450505050565b634e487b7160e01b600052601160045260246000fd5b6000821982111561107d5761107d611054565b500190565b60208082526048908201527f69664e6f744d696e7465643a206e6f6e63652070726f7669646564206d75737460408201527f20312067726561746572207468616e207468652070726576696f75732062757260608201526737103737b731b29760c11b608082015260a00190565b81835281816020850137506000828201602090810191909152601f909101601f19169091010190565b60018060a01b03861681528460208201526080604082015260006111416080830185876110f0565b90508260608301529695505050505050565b60006020828403121561116557600080fd5b5051919050565b60006020828403121561117e57600080fd5b81518015158114610e1957600080fd5b6000600182016111a0576111a0611054565b5060010190565b60006040820185835260206040818501528185835260608501905060608660051b86010192508660005b8781101561124157868503605f190183528135368a9003601e190181126111f757600080fd5b8901848101903567ffffffffffffffff81111561121357600080fd5b80360382131561122257600080fd5b61122d8782846110f0565b9650505091830191908301906001016111d1565b509298975050505050505050565b60208082526026908201527f417574686f72697a6572733a207369676e617475726573206e6f7420617574686040820152651bdc9a5e995960d21b606082015260800190565b6000602082840312156112a757600080fd5b8151610e1981610de7565b82815260006020604081840152835180604085015260005b818110156112e6578581018301518582016060015282016112ca565b818111156112f8576000606083870101525b50601f01601f19169290920160600194935050505056fea2646970667358221220c94a8193894fc18dc6e82ec405189fe2a50ead3f1c775b463d0b213970b5803164736f6c634300080f0033",
  "immutableReferences": {},
  "source": "// SPDX-License-Identifier: MIT\npragma solidity 0.8.15.0;\n\nimport \"@openzeppelin/contracts/token/ERC20/IERC20.sol\";\nimport \"@openzeppelin/contracts/security/ReentrancyGuard.sol\";\nimport \"./IBridge.sol\";\nimport \"./TokenPool.sol\";\nimport \"./Authorizable.sol\";\nimport \"./Message.sol\";\n\n/**\n * @dev Change to external token pool if block gas limit becomes an issue\n * @dev Bridge implements IBridge interface to mint and burn transactions\n */\ncontract Bridge is IBridge, TokenPool, Authorizable, ReentrancyGuard {\n    // Burns global counter\n    uint256 private burnNonce = 0;\n\n    /**\n     * @dev Used for 'userAddresses' mapping to assign user addresses\n        to a sequential number\n     */\n    uint256 private userAddressesCounter = 0;\n    /**\n     * @dev Contains all the user addresses, which at least once\n        executed 'mint' function\n     */ \n    mapping(uint256 => address) private userAddresses;\n    // Mapping to -> nonce when minted where the nonce is the burn nonce in ZCN\n    mapping(address => uint256) public userNonceMinted;\n\n    modifier notMinted(address to, uint256 nonce_) {\n        require(\n            userNonceMinted[to] + 1 == nonce_,\n            \"ifNotMinted: nonce provided must 1 greater than the previous burn nonce.\"\n        );\n        _;\n    }\n\n    /**\n     * @dev Initializes the contract, sets {token} {authorizers} and\n     * initializes authorizers and token pool.\n     */\n    constructor(IERC20 _token, IAuthorizers _authorizers)\n        TokenPool(_token)\n        Authorizable(_authorizers){}\n\n    /**\n     * @dev Returns nonce for a specified account\n     */\n    function getUserNonceMinted(address to) public view returns (uint256){\n        return userNonceMinted[to];\n    }\n\n    /**\n     * @dev Resets 'userNonceMinted' mapping.\n     * @notice Should be used only for development purpose\n     */\n    function resetUserNonceMinted() public onlyOwner {\n        for (uint i = 0; i <= userAddressesCounter; i++) {\n            delete userNonceMinted[userAddresses[i]];\n        }\n    }\n\n    /**\n     * @dev see {IBridge-burn}\n     */\n    function burn(uint256 _amount, bytes calldata _clientId) external override {\n        _burn(msg.sender, _amount, _clientId);\n    }\n\n    /**\n     * @dev Implementation of the burn function\n     * @param _from - the address to burn tokens from\n     * @param _amount - The amount of tokens to burn\n     * @param _clientId - The 0chain client ID of the burner\n     */\n    function _burn(\n        address _from,\n        uint256 _amount,\n        bytes memory _clientId\n    ) private {\n        require(\n            this.token().transferFrom(_from, address(this), _amount),\n            \"Bridge: transfer into burn pool failed\"\n        );\n        // first nonce is 1 not 0\n        burnNonce = burnNonce + 1;\n        \n        emit Burned(_from, _amount, _clientId, burnNonce);\n    }\n\n    /**\n     * @dev see {Ibridge-mint}\n     */\n    function mint(\n        address _to,\n        uint256 _amount,\n        bytes calldata _txid,\n        uint256 _nonce,\n        bytes[] calldata _signatures\n    ) external override notMinted(_to, _nonce) {\n        Message.Args memory args = Message.Args(\n            _to,\n            _amount,\n            _txid,\n            _nonce\n        );\n\n        bytes32 message = authorizers().messageHash(\n            _to,\n            _amount,\n            _txid,\n            _nonce\n        );\n\n        _mint(args, message, _signatures);\n    }\n\n    /**\n     * @dev implements third party mint execution\n     */\n    function mintFor(\n        address _for,\n        uint256 _amount,\n        bytes calldata _txid,\n        uint256 _nonce,\n        bytes[] calldata _signatures\n    ) external notMinted(_for, _nonce) {\n        // CompileError: CompilerError: Stack too deep.\n        // Try compiling with `--via-ir` (cli) or the equivalent `viaIR: true` (standard JSON)\n        // while enabling the optimizer. Otherwise, try removing local variables.\n        address to = _for;\n        uint256 amount = _amount;\n        bytes calldata txid = _txid;\n        uint256 nonce = _nonce;\n        bytes[] calldata signatures = _signatures;\n        Message.Args memory args = Message.Args(\n            to,\n            amount,\n            txid,\n            nonce\n        );\n        bytes32 message = authorizers().messageHash(\n            to,\n            amount,\n            txid,\n            nonce\n        );\n        _mint(args, message, signatures);\n    }\n\n    /**\n     * @dev Implementation of the mint function\n     * @param _args    - Arguments for message\n     * @param _message - The message generated and signed by authorizers\n     * @param _signatures - The validated signatures concatenated\n     */\n    function _mint(\n        Message.Args memory _args,\n        bytes32 _message,\n        bytes[] calldata _signatures\n    ) private nonReentrant isAuthorized(_message, _signatures) {\n        //Authorizer logic\n\n        require(\n            this.token().transfer(_args.to, _args.amount),\n            \"Bridge: transfer out of pool failed\"\n        );\n\n        // solhint-disable-next-line\n        userNonceMinted[_args.to] = _args.nonce;\n        // solhint-disable-next-line\n        userAddresses[userAddressesCounter] = _args.to;\n        userAddressesCounter++;\n\n        emit Minted(\n            _args.to,\n            _args.amount,\n            _args.txid,\n            _args.nonce\n        );\n    }\n\n    // TODO UPDATE THIS\n\n    function isAuthorizationValid(\n        uint256 _amount,\n        bytes calldata _txid,\n        uint256 _nonce,\n        bytes[] calldata signatures\n    ) external returns (bool) {\n        bytes32 message = authorizers().messageHash(\n            msg.sender,\n            _amount,\n            _txid,\n            _nonce\n        );\n        return validAuthorization(message, signatures);\n    }\n\n    function validAuthorization(bytes32 message, bytes[] calldata signatures)\n        internal\n        isAuthorized(message, signatures)\n        returns (bool)\n    {\n        return true;\n    }\n}",
  "sourcePath": "/Volumes/Files/web3/0chain.io/token_bridge_SC/contracts/Bridge.sol",
  "compiler": {
    "name": "solc",
    "version": "0.8.15+commit.e14f2714.Emscripten.clang"
  },
  "schemaVersion": "3.4.10",
  "updatedAt": "2023-03-17T19:02:14.428Z",
  "networkType": "ethereum",
  "devdoc": {
    "details": "Change to external token pool if block gas limit becomes an issueBridge implements IBridge interface to mint and burn transactions",
    "kind": "dev",
    "methods": {
      "authorizers()": {
        "details": "returns the Authorizers Interface instance"
      },
      "burn(uint256,bytes)": {
        "details": "see {IBridge-burn}"
      },
      "constructor": {
        "details": "Initializes the contract, sets {token} {authorizers} and initializes authorizers and token pool."
      },
      "getUserNonceMinted(address)": {
        "details": "Returns nonce for a specified account"
      },
      "mint(address,uint256,bytes,uint256,bytes[])": {
        "details": "see {Ibridge-mint}"
      },
      "mintFor(address,uint256,bytes,uint256,bytes[])": {
        "details": "implements third party mint execution"
      },
      "owner()": {
        "details": "Returns the address of the current owner."
      },
      "renounceOwnership()": {
        "details": "Leaves the contract without owner. It will not be possible to call `onlyOwner` functions anymore. Can only be called by the current owner. NOTE: Renouncing ownership will leave the contract without an owner, thereby removing any functionality that is only available to the owner."
      },
      "resetUserNonceMinted()": {
        "details": "Resets 'userNonceMinted' mapping."
      },
      "transferOwnership(address)": {
        "details": "Transfers ownership of the contract to a new account (`newOwner`). Can only be called by the current owner."
      }
    },
    "stateVariables": {
      "userAddresses": {
        "details": "Contains all the user addresses, which at least once executed 'mint' function"
      },
      "userAddressesCounter": {
        "details": "Used for 'userAddresses' mapping to assign user addresses to a sequential number"
      }
    },
    "version": 1
  },
  "userdoc": {
    "kind": "user",
    "methods": {
      "resetUserNonceMinted()": {
        "notice": "Should be used only for development purpose"
      }
    },
    "version": 1
  }
}