{
  "contractName": "Bridge",
  "abi": [
    {
      "inputs": [
        {
          "internalType": "contract IERC20",
          "name": "token_",
          "type": "address"
        },
        {
          "internalType": "contract IAuthorizers",
          "name": "authorizers_",
          "type": "address"
        }
      ],
      "stateMutability": "nonpayable",
      "type": "constructor"
    },
    {
      "anonymous": false,
      "inputs": [
        {
          "indexed": true,
          "internalType": "address",
          "name": "from",
          "type": "address"
        },
        {
          "indexed": false,
          "internalType": "uint256",
          "name": "amount",
          "type": "uint256"
        },
        {
          "indexed": false,
          "internalType": "bytes",
          "name": "clientId",
          "type": "bytes"
        },
        {
          "indexed": true,
          "internalType": "uint256",
          "name": "nonce",
          "type": "uint256"
        }
      ],
      "name": "Burned",
      "type": "event"
    },
    {
      "anonymous": false,
      "inputs": [
        {
          "indexed": true,
          "internalType": "address",
          "name": "to",
          "type": "address"
        },
        {
          "indexed": false,
          "internalType": "uint256",
          "name": "amount",
          "type": "uint256"
        },
        {
          "indexed": false,
          "internalType": "bytes",
          "name": "txid",
          "type": "bytes"
        },
        {
          "indexed": true,
          "internalType": "uint256",
          "name": "nonce",
          "type": "uint256"
        }
      ],
      "name": "Minted",
      "type": "event"
    },
    {
      "anonymous": false,
      "inputs": [
        {
          "indexed": true,
          "internalType": "address",
          "name": "previousOwner",
          "type": "address"
        },
        {
          "indexed": true,
          "internalType": "address",
          "name": "newOwner",
          "type": "address"
        }
      ],
      "name": "OwnershipTransferred",
      "type": "event"
    },
    {
      "inputs": [],
      "name": "owner",
      "outputs": [
        {
          "internalType": "address",
          "name": "",
          "type": "address"
        }
      ],
      "stateMutability": "view",
      "type": "function",
      "constant": true
    },
    {
      "inputs": [],
      "name": "renounceOwnership",
      "outputs": [],
      "stateMutability": "nonpayable",
      "type": "function"
    },
    {
      "inputs": [
        {
          "internalType": "address",
          "name": "newOwner",
          "type": "address"
        }
      ],
      "name": "transferOwnership",
      "outputs": [],
      "stateMutability": "nonpayable",
      "type": "function"
    },
    {
      "inputs": [
        {
          "internalType": "address",
          "name": "",
          "type": "address"
        }
      ],
      "name": "userNonceMinted",
      "outputs": [
        {
          "internalType": "uint256",
          "name": "",
          "type": "uint256"
        }
      ],
      "stateMutability": "view",
      "type": "function",
      "constant": true
    },
    {
      "inputs": [
        {
          "internalType": "address",
          "name": "to_",
          "type": "address"
        }
      ],
      "name": "getUserNonceMinted",
      "outputs": [
        {
          "internalType": "uint256",
          "name": "",
          "type": "uint256"
        }
      ],
      "stateMutability": "view",
      "type": "function",
      "constant": true
    },
    {
      "inputs": [],
      "name": "resetUserNonceMinted",
      "outputs": [],
      "stateMutability": "nonpayable",
      "type": "function"
    },
    {
      "inputs": [
        {
          "internalType": "uint256",
          "name": "amount_",
          "type": "uint256"
        },
        {
          "internalType": "bytes",
          "name": "clientId_",
          "type": "bytes"
        }
      ],
      "name": "burn",
      "outputs": [],
      "stateMutability": "nonpayable",
      "type": "function"
    },
    {
      "inputs": [
        {
          "internalType": "address",
          "name": "to_",
          "type": "address"
        },
        {
          "internalType": "uint256",
          "name": "amount_",
          "type": "uint256"
        },
        {
          "internalType": "bytes",
          "name": "txid_",
          "type": "bytes"
        },
        {
          "internalType": "uint256",
          "name": "nonce_",
          "type": "uint256"
        },
        {
          "internalType": "bytes[]",
          "name": "signatures_",
          "type": "bytes[]"
        }
      ],
      "name": "mint",
      "outputs": [],
      "stateMutability": "nonpayable",
      "type": "function"
    }
  ],
  "bytecode": "0x60806040526000600455600060055534801561001a57600080fd5b50604051610db3380380610db3833981016040819052610039916100e6565b806100433361007e565b600180546001600160a01b039283166001600160a01b0319918216178255600291909155600380549490921693169290921790915550610120565b600080546001600160a01b038381166001600160a01b0319831681178455604051919092169283917f8be0079c531659141344cd1fd0a4f28419497f9722a3daafe3b4186f6b6457e09190a35050565b6001600160a01b03811681146100e357600080fd5b50565b600080604083850312156100f957600080fd5b8251610104816100ce565b6020840151909250610115816100ce565b809150509250929050565b610c848061012f6000396000f3fe608060405234801561001057600080fd5b50600436106100885760003560e01c80639e2aa15c1161005b5780639e2aa15c146100f8578063e563e52614610100578063f2fde38b14610129578063fe9d93031461013c57600080fd5b8063062f950e1461008d57806356f6dd62146100c0578063715018a6146100d55780638da5cb5b146100dd575b600080fd5b6100ad61009b3660046108e9565b60076020526000908152604090205481565b6040519081526020015b60405180910390f35b6100d36100ce366004610954565b61014f565b005b6100d36102ee565b6000546040516001600160a01b0390911681526020016100b7565b6100d3610302565b6100ad61010e3660046108e9565b6001600160a01b031660009081526007602052604090205490565b6100d36101373660046108e9565b610350565b6100d361014a366004610a18565b6103c6565b6001600160a01b038716600090815260076020526040902054879084908190610179906001610a7a565b146101f15760405162461bcd60e51b815260206004820152603e60248201527f50726f7669646564206e6f6e6365206d7573742062652031206772656174657260448201527f207468616e207468652070726576696f7573206275726e206e6f6e63652e000060648201526084015b60405180910390fd5b600060405180608001604052808b6001600160a01b031681526020018a815260200189898080601f016020809104026020016040519081016040528093929190818152602001838380828437600092018290525093855250505060209091018890526001546040516302c926b960e21b815292935090916001600160a01b0390911690630b249ae490610290908e908e908e908e908e90600401610abb565b6020604051808303816000875af11580156102af573d6000803e3d6000fd5b505050506040513d601f19601f820116820180604052508101906102d39190610af5565b90506102e18282888861040c565b5050505050505050505050565b6102f661068a565b61030060006106e4565b565b61030a61068a565b60005b600554811161034d576000818152600660209081526040808320546001600160a01b0316835260079091528120558061034581610b0e565b91505061030d565b50565b61035861068a565b6001600160a01b0381166103bd5760405162461bcd60e51b815260206004820152602660248201527f4f776e61626c653a206e6577206f776e657220697320746865207a65726f206160448201526564647265737360d01b60648201526084016101e8565b61034d816106e4565b610407338484848080601f01602080910402602001604051908101604052809392919081815260200183838082843760009201919091525061073492505050565b505050565b610414610876565b60015460405163e304688f60e01b81528491849184916001600160a01b03169063e304688f9061044c90869086908690600401610b27565b6020604051808303816000875af115801561046b573d6000803e3d6000fd5b505050506040513d601f19601f8201168201806040525081019061048f9190610bcf565b6104e75760405162461bcd60e51b815260206004820152602360248201527f476976656e207369676e61747572657320617265206e6f7420617574686f72696044820152621e995960ea1b60648201526084016101e8565b600354875160208901516040516323b872dd60e01b81523060048201526001600160a01b03928316602482015260448101919091529116906323b872dd906064016020604051808303816000875af1158015610547573d6000803e3d6000fd5b505050506040513d601f19601f8201168201806040525081019061056b9190610bcf565b6105c35760405162461bcd60e51b815260206004820152602360248201527f4272696467653a207472616e73666572206f7574206f6620706f6f6c206661696044820152621b195960ea1b60648201526084016101e8565b606087015187516001600160a01b039081166000908152600760209081526040808320949094558a51600580548452600690925293822080546001600160a01b03191694909316939093179091558154919061061e83610b0e565b9190505550866060015187600001516001600160a01b03167fe04478a4154dc31a079fa36b9ee1af057f492a47c1524ac67f2ea4c214c3de9289602001518a6040015160405161066f929190610bf1565b60405180910390a35050506106846001600255565b50505050565b6000546001600160a01b031633146103005760405162461bcd60e51b815260206004820181905260248201527f4f776e61626c653a2063616c6c6572206973206e6f7420746865206f776e657260448201526064016101e8565b600080546001600160a01b038381166001600160a01b0319831681178455604051919092169283917f8be0079c531659141344cd1fd0a4f28419497f9722a3daafe3b4186f6b6457e09190a35050565b61073c610876565b6003546040516323b872dd60e01b81526001600160a01b03858116600483015230602483015260448201859052909116906323b872dd906064016020604051808303816000875af1158015610795573d6000803e3d6000fd5b505050506040513d601f19601f820116820180604052508101906107b99190610bcf565b6108145760405162461bcd60e51b815260206004820152602660248201527f4272696467653a207472616e7366657220696e746f206275726e20706f6f6c2060448201526519985a5b195960d21b60648201526084016101e8565b600454610822906001610a7a565b60048190556040516001600160a01b038516907f2b1155a5de2441854f3781130b980daa499b3412053ee40fcde076774bb12df2906108649086908690610bf1565b60405180910390a36104076001600255565b60028054036108c75760405162461bcd60e51b815260206004820152601f60248201527f5265656e7472616e637947756172643a207265656e7472616e742063616c6c0060448201526064016101e8565b60028055565b80356001600160a01b03811681146108e457600080fd5b919050565b6000602082840312156108fb57600080fd5b610904826108cd565b9392505050565b60008083601f84011261091d57600080fd5b50813567ffffffffffffffff81111561093557600080fd5b60208301915083602082850101111561094d57600080fd5b9250929050565b600080600080600080600060a0888a03121561096f57600080fd5b610978886108cd565b965060208801359550604088013567ffffffffffffffff8082111561099c57600080fd5b6109a88b838c0161090b565b909750955060608a0135945060808a01359150808211156109c857600080fd5b818a0191508a601f8301126109dc57600080fd5b8135818111156109eb57600080fd5b8b60208260051b8501011115610a0057600080fd5b60208301945080935050505092959891949750929550565b600080600060408486031215610a2d57600080fd5b83359250602084013567ffffffffffffffff811115610a4b57600080fd5b610a578682870161090b565b9497909650939450505050565b634e487b7160e01b600052601160045260246000fd5b60008219821115610a8d57610a8d610a64565b500190565b81835281816020850137506000828201602090810191909152601f909101601f19169091010190565b60018060a01b0386168152846020820152608060408201526000610ae3608083018587610a92565b90508260608301529695505050505050565b600060208284031215610b0757600080fd5b5051919050565b600060018201610b2057610b20610a64565b5060010190565b60006040820185835260206040818501528185835260608501905060608660051b86010192508660005b87811015610bc157868503605f190183528135368a9003601e19018112610b7757600080fd5b8901848101903567ffffffffffffffff811115610b9357600080fd5b803603821315610ba257600080fd5b610bad878284610a92565b965050509183019190830190600101610b51565b509298975050505050505050565b600060208284031215610be157600080fd5b8151801515811461090457600080fd5b82815260006020604081840152835180604085015260005b81811015610c2557858101830151858201606001528201610c09565b81811115610c37576000606083870101525b50601f01601f19169290920160600194935050505056fea2646970667358221220eb5c37dca44f547c97e8d9a58caf3f91177dc9c7b22b22336560184a556ccef264736f6c634300080f0033",
  "immutableReferences": {},
  "source": "// SPDX-License-Identifier: MIT\npragma solidity 0.8.15.0;\n\nimport \"@openzeppelin/contracts/token/ERC20/IERC20.sol\";\nimport \"@openzeppelin/contracts/security/ReentrancyGuard.sol\";\nimport \"./interfaces/IBridge.sol\";\nimport \"./Token.sol\";\nimport \"./Authorizable.sol\";\nimport \"./libraries/Structs.sol\";\n\n/**\n * @title Bridge\n * \n * @notice A bridge for DEX operations. Implements IBridge interface\n */\ncontract Bridge is IBridge, Authorizable, ReentrancyGuard {\n    /// @notice Instance of Token smart contract\n    IERC20 private token;\n\n    /// @notice A global burn nonce. Its first value should be 1, not 0\n    uint256 private burnNonce = 0;\n\n    /// @notice Amount of user addresses, which at least once executed 'mint' function\n    uint256 private userAddressesCounter = 0;\n\n    /// @notice Contains all the user addresses, which at least once executed 'mint' function\n    mapping(uint256 => address) private userAddresses;\n\n    /// @notice Contains a burn nonce attached to the user address\n    mapping(address => uint256) public userNonceMinted;\n\n    constructor(IERC20 token_, IAuthorizers authorizers_)\n        Authorizable(authorizers_){\n            token = token_;\n        }\n\n    /**\n     * @notice A modifier, which throws error, if given nonce already was used before\n     * @param to_ The address to mint tokens to\n     * @param nonce_ The nonce of mint transaction\n     */\n    modifier notMinted(address to_, uint256 nonce_) {\n        require(\n            userNonceMinted[to_] + 1 == nonce_,\n            \"Provided nonce must be 1 greater than the previous burn nonce.\"\n        );\n        _;\n    }\n\n    /**\n     * @notice A function, which returns mint nonce for a specified ethereum address\n     * @param to_ The address used for mint function calls \n     * @return uint256 The nonce used during burn function calls\n     */\n    function getUserNonceMinted(address to_) public view returns (uint256){\n        return userNonceMinted[to_];\n    }\n\n    /**\n     * @notice A function, which is used to reset all the mint nonces.\n     */\n    function resetUserNonceMinted() public onlyOwner {\n        for (uint i = 0; i <= userAddressesCounter; i++) {\n            delete userNonceMinted[userAddresses[i]];\n        }\n    }\n\n    /**\n     * @dev see {IBridge-burn}\n     */\n    function burn(uint256 amount_, bytes calldata clientId_) external override {\n        _burn(msg.sender, amount_, clientId_);\n    }\n\n    /**\n     * @notice An implementation of the burn function\n     * @param from_ The address to burn tokens from\n     * @param amount_ The amount of tokens to burn\n     * @param clientId_ The 0chain client ID of the burner\n     */\n    function _burn(\n        address from_,\n        uint256 amount_,\n        bytes memory clientId_\n    ) private nonReentrant {\n        require(\n            token.transferFrom(from_, address(this), amount_),\n            \"Bridge: transfer into burn pool failed\"\n        );\n        burnNonce = burnNonce + 1;\n        \n        emit Burned(from_, amount_, clientId_, burnNonce);\n    }\n\n    /**\n     * @dev see {IBridge-mint}\n     */\n    function mint(\n        address to_,\n        uint256 amount_,\n        bytes calldata txid_,\n        uint256 nonce_,\n        bytes[] calldata signatures_\n    ) external override notMinted(to_, nonce_) {\n        Structs.Args memory args = Structs.Args(\n            to_,\n            amount_,\n            txid_,\n            nonce_\n        );\n\n        bytes32 message = authorizers.messageHash(\n            to_,\n            amount_,\n            txid_,\n            nonce_\n        );\n\n        _mint(args, message, signatures_);\n    }\n\n    /**\n     * @notice An implementation of the mint function\n     * @param args_ The arguments for message\n     * @param message_ The message generated and signed by authorizers\n     * @param signatures_ The validated signatures concatenated\n     */\n    function _mint(\n        Structs.Args memory args_,\n        bytes32 message_,\n        bytes[] calldata signatures_\n    ) private nonReentrant isAuthorized(message_, signatures_) {\n        require(\n            token.transferFrom(address(this), args_.to, args_.amount),\n            \"Bridge: transfer out of pool failed\"\n        );\n\n        // solhint-disable-next-line\n        userNonceMinted[args_.to] = args_.nonce;\n        // solhint-disable-next-line\n        userAddresses[userAddressesCounter] = args_.to;\n        userAddressesCounter++;\n\n        emit Minted(\n            args_.to,\n            args_.amount,\n            args_.txid,\n            args_.nonce\n        );\n    }\n}",
  "sourcePath": "/Volumes/Files/web3/0chain.io/token_bridge_SC/contracts/Bridge.sol",
  "compiler": {
    "name": "solc",
    "version": "0.8.15+commit.e14f2714.Emscripten.clang"
  },
  "schemaVersion": "3.4.10",
  "updatedAt": "2023-04-13T11:50:04.157Z",
  "networkType": "ethereum",
  "devdoc": {
    "kind": "dev",
    "methods": {
      "burn(uint256,bytes)": {
        "details": "see {IBridge-burn}"
      },
      "getUserNonceMinted(address)": {
        "params": {
          "to_": "The address used for mint function calls "
        },
        "returns": {
          "_0": "uint256 The nonce used during burn function calls"
        }
      },
      "mint(address,uint256,bytes,uint256,bytes[])": {
        "details": "see {IBridge-mint}"
      },
      "owner()": {
        "details": "Returns the address of the current owner."
      },
      "renounceOwnership()": {
        "details": "Leaves the contract without owner. It will not be possible to call `onlyOwner` functions anymore. Can only be called by the current owner. NOTE: Renouncing ownership will leave the contract without an owner, thereby removing any functionality that is only available to the owner."
      },
      "transferOwnership(address)": {
        "details": "Transfers ownership of the contract to a new account (`newOwner`). Can only be called by the current owner."
      }
    },
    "title": "Bridge ",
    "version": 1
  },
  "userdoc": {
    "kind": "user",
    "methods": {
      "getUserNonceMinted(address)": {
        "notice": "A function, which returns mint nonce for a specified ethereum address"
      },
      "resetUserNonceMinted()": {
        "notice": "A function, which is used to reset all the mint nonces."
      },
      "userNonceMinted(address)": {
        "notice": "Contains a burn nonce attached to the user address"
      }
    },
    "notice": "A bridge for DEX operations. Implements IBridge interface",
    "version": 1
  }
}